:020000041000EA
:1000000000B52F4B212058609868022188439860E2
:10001000D860186158612B4B002199600221596109
:100020000121F02299502849196001219960352059
:1000300000F03EF80222904214D00621196600F02A
:100040002EF8196E01211966002018661A6600F054
:1000500026F8196E196E196E052000F029F8012195
:100060000842F9D1002199601849196000215960AE
:1000700017491848016001219960EB211966A021F8
:10008000196600F00CF800219960134911480160CD
:100090000121996001BC002800D11048004703B538
:1000A000996A04200142FBD001200142F8D103BD2E
:1000B00002B518661866FFF7F2FF186E186E02BDDB
:1000C00000000240000000180000070000035F006D
:1000D00021220000F4000018222000A001010010DD
:1000E0000000000000000000000000000000000010
:1000F0000000000000000000000000003E272A6011
:10010000274800E000202749886006C881F3088856
:10011000104725480068002839D112A40ECC0029C8
:1001200002D000F012F8F9E72049214A002000E04F
:1001300001C19142FCD11F4988471F4988471F4987
:10014000884700BEFDE701C901C29A42FBD3704750
:10015000F2EB8871AC660010D466001064010010E8
:1001600090A31AE7D4660010C00000208C0C002079
:10017000A07200100000042000000420A0720010F3
:1001800000100420001004200000000070470C48FC
:1001900001F026FF0047EFF30580C0B27047000072
:1001A0000002001000ED00E0000000D0900C0020E4
:1001B000501A00205D170010010500107D18001076
:1001C0005756000006005250ABB360530C64001049
:1001D00006005250861C03021C6400100600525098
:1001E0005422A29D3C64001005005250DE65F46864
:1001F000A0720010000000000000000000000000DD
:100200000020042013010010C3020010C5020010DA
:10021000C1020010C1020010C1020010C102001092
:10022000C1020010C1020010C1020010C70200107C
:10023000C1020010C1020010C9020010CB02001060
:10024000CD020010CD020010CD020010CD02001032
:10025000CD020010CD020010CD020010CD02001022
:10026000CD020010CD020010CD020010CD02001012
:10027000CD020010CD020010CD020010CD02001002
:10028000CD020010CD020010CD020010CD020010F2
:10029000CD020010CD020010CD020010CD020010E2
:1002A000CD020010CD020010CD020010CD020010D2
:1002B000CD020010CD020010CD020010CD020010C2
:1002C00000BE00BE00BE00BE00BE00BEFFF763FF62
:1002D000103800BEF8B5C0460448054B10B583423F
:1002E00003D0044B002B00D0984710BD8C0C00208D
:1002F0008C0C00200000000006480749091A8910EC
:10030000CB0F591810B5491003D0044B002B00D067
:10031000984710BD8C0C00208C0C002000000000C1
:1003200010B5074C2378002B09D1FFF7D5FF054BFB
:10033000002B02D0044800E000BF0123237010BD51
:10034000980C00200000000000630010054B10B561
:10035000002B03D00449054800E000BFFFF7CCFFA5
:1003600010BDC046000000009C0C0020006300107F
:10037000F0B52C4CC1B0200002F00EF82A4D0D272C
:100380002B68986804F00EFC2000002268242021CD
:10039000264B00269E5F264B002A36D1A6423BD034
:1003A0009A691142FCD11C60027801300D3A544226
:1003B00062410478D2B2002CEED120211C4A93690C
:1003C0001942FCD10A231B4913601948184C102606
:1003D00000F0D4F9002816D0A3691E42FCD16A4669
:1003E0002368012113702B6801229B68684604F082
:1003F000B9FE2B68986804F0D5FB0E490C4800F054
:10040000BDF90028E8D141B0F0BD9A691142CAD0C7
:100410009A691142F9D1C6E79A691142FCD11F606D
:10042000BEE7C0460063001030040020841700209F
:100430000040034080841E00F0B52C4CC1B0200069
:1004400001F0AAFF2A4D0D272B68986804F0AAFB3B
:100450002000002268242021264B00269E5F264B88
:10046000002A36D1A6423BD09A691142FCD11C60C9
:10047000027801300D3A544262410478D2B2002C25
:10048000EED120211C4A93691942FCD10A231B4951
:1004900013601948184C102600F070F9002816D087
:1004A000A3691E42FCD16A462368012113702B68A0
:1004B00001229B68684604F055FE2B68986804F09A
:1004C00071FB0E490C4800F059F90028E8D141B001
:1004D000F0BD9A691142CAD09A691142F9D1C6E7B2
:1004E0009A691142FCD11F60BEE7C0463863001014
:1004F00030040020841700200040034080841E0048
:1005000010B502F09BF8084802F09EF8002003F0B6
:1005100039FD0028FAD0FFF72BFFFFF78DFFFFF71B
:1005200027FFFFF789FFF6E7F4030020094A83005D
:1005300094464022634410B51C68C0006240C02449
:1005400014408022520113431C60034B9C466044BC
:10055000416010BD04C0014000400140F8B5EFF318
:10056000108C72B60D4F3B68002BFCD0BFF35F8F31
:10057000CB08C018057807242B000C40E340012667
:10058000334008D1A64035430570BFF35F8F3B6011
:100590008CF31088F8BD100001F072F92C0100D026
:1005A000F8B54746CE46884680B5EFF3108C72B654
:1005B000214D2C68002CFCD0BFF35F8F9A422DD8C0
:1005C000D40804192678072537001540EF40F907AD
:1005D0001ED507218946063908E0D4080419267873
:1005E0004D4637001540EF40394211D00132934259
:1005F000F3D201204042BFF35F8F00220E4B1A60FE
:100600008CF31088002811DB0CBC90469946F8BD8D
:100610000123AB401E4326701000ECE7BFF35F8F51
:1006200000232B608CF31088012040424346002BAE
:10063000EAD0089801F024F92C0100D00021044BE5
:10064000044ABFF35F8F02C39342FAD17047C0469A
:10065000000100D0800100D0044A1078431CDBB2B6
:10066000172B00D9102313707047C0467003002069
:1006700000B5054B83B00100009318221F230348E7
:10068000FFF78EFF03B000BD7063001068100020FC
:10069000024B18688007C00F7047C04600C0064074
:1006A000F0B5C646050000B506200E0001F07CFA44
:1006B00003000020002B4DD0294B2A49EB185A4249
:1006C00053418022D20394465B421340264A63443E
:1006D0001360264A13601C008A689443FBD1204BA8
:1006E0008021EB185A425341214A5B004900062001
:1006F000995201F059FA3100C00001F0CBFC7F267D
:100700001C4B0640C709013676086F629F4224D011
:10071000AE622C2398468024A8444346A4011C437F
:1007200000230620236001F03FFAB90189198000F7
:1007300001F0B0FC6023EA6A414653406E221A4041
:1007400080235B010B431A600B4B2B631023236048
:100750000D3BAB6404BC9046F0BDAC62D9E7C0462B
:100760000080FCBF00C0004000E0004000F00040FE
:1007700084170020FFFF000001030000074A30B586
:10078000956A102403E0936A5B1B8B4204D883694B
:100790001C42F8D1012030BD0020FCE7004005409C
:1007A00083680B4810B58446614462440901120114
:1007B0009A18591854684B6801209C4201D802D0FD
:1007C0000020C0B210BD12680B689A42F9D8F7E752
:1007D000FFFFFF0F40BF002000217047F0B54E46DD
:1007E00057464546DE46E0B583B01F000FAB1B7889
:1007F0000E9C8146160001930568002C15D1AC7B38
:100800000020002C06D103B03CBC90469946A2467D
:10081000AB46F0BD2A68630094461B196344033B52
:100820005B78AB73002B00D1EB734A469268E3B25E
:1008300094469B462F4B0C9AE3181B0163449A6025
:100840000D9A1E605F60DA60D02380221B061203BF
:100850005A6163001B19033B984600222B684344EE
:100860009A705A701A706B7B9A46002B27D0190029
:100870005A466B68A868984753465B005344033B4D
:10088000002810D051462A68D31842449170197834
:10089000002900D051705A461A70534620006B73DD
:1008A000A245B0D10DE0424629688A18CB185946B6
:1008B00099701178002900D05970534613705B4627
:1008C0006B734B463200187D3B0000F0CBFB051EDE
:1008D00005D1109B002B0BD01D70200093E7019BCE
:1008E000002BF6D14B465946186800F097FDF0E70B
:1008F000200088E7FFFFFF0F7E4B8200F0B5D45841
:100900000023DE4657464E46454682469B46E0B5A6
:100910008DB000F055FB6268EFF3108572B6136876
:10092000002BFCD0BFF35F8F23689C465B7B99460E
:10093000002B00D196E0A2686F4B90464B441B0100
:10094000984443461A685B6816001F00361A8F41A8
:10095000002F00DC8EE0504600F084FB00220023D4
:1009600000270026089209936368BFF35F8F5A46F9
:100970001A6085F31088002E4BD0D023802280216E
:100980001B06920309035A6199619A610B9B390016
:1009900018024B461843B047626806900791EFF380
:1009A000108572B61368002BFCD0BFF35F8F079BD6
:1009B000002B38DB069A079B1100194303D02369EB
:1009C000002B00D071E02368DA7B002A07D05100A9
:1009D0008A1819688C4649466244033A51704A465F
:1009E000DA73E2684B469446013B63441A7801325D
:1009F0001A705B4623616368BFF35F8F5A461A60C3
:100A000085F3108800F0DCFA6268EFF3108572B6A7
:100A100085E7002800D07CE70DB03CBC90469946A5
:100A2000A246AB46F0BD2369002BCCD006980799AF
:100A3000089A099B121A8B41089809990692079304
:100A4000079A914249D845D05B46012104934B4611
:100A50000391029301970096069A079B2000FFF7E7
:100A6000BDFEC6E700220023002708920993002656
:100A7000002079E7002F02D1002E00D06BE7012182
:100A8000604600F01FFC43461A685B6808920993B1
:100A900043469E68DF68E3684B44013B1B780B9339
:100AA0001B021843206100205EE700F089FA069AD5
:100AB000079B12184B41994217D814D059460491FC
:100AC0000121039149460197029100962000FFF70A
:100AD00085FE8EE7069A9042B6D901225242D3177C
:100AE00006920793B0E79042E8D901225242D31709
:100AF000E4E7C04654170020FFFFFF0F70B5184C05
:100B00002368002B00D070BD032000F04DFA0320B5
:100B100000F002FB1349032000F05EFA182001F0F8
:100B200083FB0500FFF798FD0F4B2A009C466044AD
:100B3000800068600D49102000F094FB10212860AF
:100B4000102001F075FB0121A860102001F070FB5E
:100B500003232B75064BE860DD602560D3E7C046B4
:100B600094100020F908001040000034A107001084
:100B700054170020014B18687047C046941000209D
:100B8000F0B54E46DE4657464546E0B583B0009286
:100B900001930EAB1B780600994600239B467268B2
:100BA000EFF3108872B61368002BFCD0BFF35F8F91
:100BB0003568AC7B002C0ED17368BFF35F8F1C606F
:100BC00088F310880120404203B03CBC904699460F
:100BD000A246AB46F0BD67003F192B68033FDB1907
:100BE0005B78AB73002B00D1EB73B2684C4B94462F
:100BF0000099019AE3181B01634419605A600C9A2A
:100C00009A600D9ADA60D02380221B0612035A6183
:100C100000222B68DB199A705A701A706B7B9A4607
:100C2000002B66D022006B685146A868984753464F
:100C30005B005344033B2A68002852D0D318D719CD
:100C40005246BA701A78002A66D11C7053466B73EC
:100C500054454FD0F3681B19013B18787368BFF3F4
:100C60005F8F00221A6088F310885B46002B02D148
:100C700000022043A8E74B46002B4FD00C9B0D9958
:100C80000020984703000B4348D004000D1E15DADE
:100C90000098019902000B00121BAB41994202D847
:100CA00008D1904206D901235B42DC1700930194DE
:100CB000CB4674E700920193CB4670E700F080F9D1
:100CC00024184D4123002C0000930194A942EAD836
:100CD000EED19842ECD901235B42DC1700930194DA
:100CE000E6E7D318D7199C703A78002A0FD15346FB
:100CF0003B706C73307D009A019B00F0B3F9834622
:100D00000028A7D02100306800F088FBA2E75A70C5
:100D100053463B706C73EDE77A7096E7002053E71B
:100D2000FFFFFF0FF0B5DE46574645464E46E0B59D
:100D30006D4B83B01D6883460F0098466A68EFF3D9
:100D4000108972B61368002BFCD0BFF35F8F2E683A
:100D5000B47B002C1AD16B68BFF35F8F1C6089F3E2
:100D60001088624A0026536A9F4207D8926A013669
:100D70005A4503D2FF1A7B1E9F41FEB2300003B0DA
:100D80003CBC90469946A246AB46F0BD63001B1999
:100D9000DA1E94463368019263445B78B373002B88
:100DA00000D1F373AA68524B94465A46E3181B01CC
:100DB00063441A604F4A5F609A6000228021DA60C3
:100DC000D02309031B065961019933688C4663449B
:100DD0009A705A701A70737B9A46002B60D022006A
:100DE00073685146B068984753465B005344033BD1
:100DF0003268002861D00199D3188C46514662446C
:100E000091701978002900D051701C70534673738B
:100E1000544546D00026EB686A681B19013B1B78D5
:100E2000BFF35F8F0021116089F31088002E98D1E5
:100E30001B021C4320BF43461D686A68EFF31088FD
:100E400072B61368002BFCD0BFF35F8FFF232868B6
:100E5000E1B2427B23408A423BD05A00914602686D
:100E6000994494464A466244033A9278002A30D123
:100E70002B699C4200D12A616B68BFF35F8F00220F
:100E80001A6088F31088194A536A9F4200D975E79F
:100E9000926A01265A4500D370E76BE753460B7000
:100EA0007473287D5A463B0000F0DCF8061EB1D072
:100EB0002100286800F0B2FAADE70199D318511863
:100EC0009C700A78002AE9D05A7053460B707473EC
:100ED000E7E7EA68240A94466344013B1B78A3428F
:100EE000CAD100F09BFAC7E79410002000400540EB
:100EF000FFFFFF0FD5070010F0B5C64600B5EFF3B2
:100F000005833F22134018001038EFF3108772B6A4
:100F10001F4D2A68002AFCD0BFF35F8F0122110009
:100F20008140884644461B494C631B4C2678A446A6
:100F30003400C440224007D1BFF35F8F2A6087F39B
:100F4000108804BC9046F0BD4C6A14498200515888
:100F50008C420FD3124BD25843469E4363461E70B9
:100F6000BFF35F8F00232B6087F31088002AE8D03F
:100F70009047E6E70B4A9B00944663441A681A6060
:100F8000BFF35F8F00232B6087F31088D9E7C0463B
:100F9000280100D000400540811700206C17002078
:100FA00058100020D03F054010B50100024A034808
:100FB000FFF7D4FA10BDC046986300107F170020D9
:100FC000044A516A00E01900906A536A9942FAD1C2
:100FD0007047C0460040054070B504000D00EFF3B7
:100FE000108672B61A4A1368002BFCD0BFF35F8FCD
:100FF000002D1BD0200000F03DFE164988420AD08B
:10100000200000F03FFE0121200000F019FE012326
:10101000A340114A1360114BA400E550BFF35F8F4A
:1010200000220B4B1A6086F3108870BD0B4BA20098
:10103000D5500122A2400A4920000B7893430B703F
:10104000044900F049FE0021200000F0F9FDE5E729
:10105000280100D0F90E001038600540581000201B
:1010600081170020F0B5CE464746274C80B5656A0B
:1010700000E00D00A66A616AA942FAD1AB4235D9F7
:10108000EFF3108872B6214C21680029FCD0BFF321
:101090005F8F012585401C491D4E4D633778ECB2AA
:1010A000A4463C433470041DA4006250194C8000D7
:1010B00003510C6A00202C420DD04C6A00E0040061
:1010C000886A8146486AA042F9D1A34202D813D166
:1010D0004A4511D90020BFF35F8F00220B4B1A60E5
:1010E00088F310880CBC90469946F0BDAB4201D104
:1010F000B242C5D80120F5E7034B01201D625D63B4
:1011000063469F433770E6E700400540280100D062
:10111000811700206C17002010B5EFF3108472B611
:101120000A490B68002BFCD0BFF35F8F012383407B
:10113000074A0848136202789A430270BFF35F8F30
:1011400000230B6084F3108810BDC046280100D036
:101150000040054081170020024B9C4661448900F5
:10116000016070474000003410B50400FFF774FAC6
:1011700001002000FFF7F0FFBFF35F8F10BDC046F6
:1011800010B504000120FFF773FA01002000FFF7FB
:10119000E3FFBFF35F8F10BDF8B54746CE4680B57D
:1011A0004C0003686418033C1A19567807000D00B8
:1011B000002E04D128000CBC90469946F8BD710061
:1011C0008919033988464344597889460021597062
:1011D0005170002D11D07B6832002900806898473B
:1011E0003B68002832D01A1943449D7011780029B9
:1011F00000D059701670A04600E035004B46002B19
:10120000D8D049463800FFF7C7FF041ED2D00200ED
:101210007B682900B868984763001B19033B3A684C
:10122000002809D1D318424494701978002900D0BD
:1012300051701D702500BDE74146D31851189D70AF
:101240000A78002A00D05A700C70B3E742461C1985
:101250009A18A6701378002B00D0637015703500B3
:10126000CCE7C046F0B5C6468846050000B510215B
:101270000120170000F0DCFF4346EEB2040043609B
:1012800006730321280000F0D3FF0023FF216373BE
:1012900001332060A760A373E6732940012907D9B1
:1012A000421C4D1C01331370013303329D42FAD1AD
:1012B0004B0059180023401803384370200004BC29
:1012C0009046F0BDF0B54E4657464546DE46E0B581
:1012D000467B03687400A419033C1A19177883B07D
:1012E00005008946002F1ED1002911D1C07B00289E
:1012F0002AD041000918591803394E70EE73002F97
:1013000006D07900C91903398846002143449970F1
:101310000023300053706F7303B03CBC9046994675
:10132000A246AB46F0BD7900C91903398846591861
:1013300048788246002809D149460029E5D1E87B52
:101340000028D6D1EE73DCE7EE73E1E742005244A9
:10135000033A93465B445A78019200225A704A70CD
:101360006B6802003900A86898472B68002830D1C4
:10137000414650465A4659189A18887010780028E5
:1013800000D048701770D8465746019A002A2DD0D1
:1013900011002800FFF700FF8246002825D0020038
:1013A00039006B68A868984753465900514403397F
:1013B0002B6800281CD04246591898188F70027864
:1013C00094461A196446002C00D04C7051460170A6
:1013D000B2E75946424659189A188F70107800287B
:1013E00000D0487051461170CFE72B681A19A3E757
:1013F0005A18984493465046424690705A4612787E
:10140000944660461A19002802D04046644644704B
:1014100058468846077057468EE7C046F0B54546A1
:10142000DE4657464E46E0B50C0083B0050000236B
:10143000002927D06600477B01683619033E8819CA
:10144000A74233D08278002A1CD053009B18033B5C
:10145000CB181A78A2421FD142781A700023027862
:10146000837043709146002A33D1EA7B002A66D00C
:1014700053009B18C91803394C70EC730023437058
:1014800001236F73180003B03CBC90469946A246F6
:10149000AB46F0BD002AE1D053009B18033BCB18AC
:1014A0005A78A242F6D142785A70D7E70278019270
:1014B000002A46D1EA7B002A3FD053009B18C91866
:1014C00003394F70EF7300234370019B6B7301234B
:1014D000D8E752004A44033A90468A185778002FBA
:1014E00042D1EB7B002B00D029E14F466E7BEC73A1
:1014F000002393704370002EC2D03A006B68310015
:10150000A868984773009B19033B2A68002808D0F5
:10151000D31842449670197800290CD11F703700F7
:10152000AEE74146D31851189F700A78002A00D0C0
:101530005A700E70A4E75170F0E7EF73C3E7EC73D5
:101540009CE71400A44652006244033A90468A186D
:101550005478A146002C58D1EB7B002B00D0F7E04B
:10156000EF7300239370AEE77800C019033882460A
:10157000514448784B7053706B6883463A00494633
:10158000A86898472B68002800D1A2E04246981826
:10159000524699184A468A70019002000078002845
:1015A00001D0019A487017704F465A46002A28D039
:1015B00059462800FFF7F0FD8146002820D00200A0
:1015C0006B683900A86898474B465B004B44033B67
:1015D0009C4600286DD042462B68981862469918A0
:1015E0008F7001900078002800D083E04A4601986F
:1015F0000270E97B98196E7B002951D1019A76E738
:101600002B6842469A180192F3E760004844033879
:101610008246514448784B7053706146220083469D
:101620006B68A868644698472968002878D05246B5
:1016300043468A18CB1894701878002800D0507050
:101640004A46C2461A705B46002B50D059462800C5
:10165000FFF7A2FD8046002848D0019C020021002F
:101660006B68A868984743465A004244D31E2968CD
:10167000002844D05246CB188A189C701078002855
:1016800000D0587043461370EB7B8819002B00D1B3
:1016900066E75E00F318C91803394F70EF7360E70F
:1016A0004A00944661445B18033B5C70019AEC73FA
:1016B0001EE729684846CA184346CB189870107828
:1016C000804688194646002E00D05E701770E046AE
:1016D00007E74146524659189A188F70107800282B
:1016E00000D048704946D04611705EE729685346DD
:1016F000CA18C9E74A46487001990A7079E7CA18BA
:1017000053464046CB189870107884466446881932
:10171000002C00D05C70019B1370434601931BE7C3
:101720005346CA1843464846CB189870107800288C
:1017300000D05870019B13704B46019383E703263A
:101740007343C91803394C706E7BEC734F46CFE678
:1017500003267343C91803394F7001E72B4B2C4AFA
:1017600070B51A602B4A2C4B2C491A6010008B68FC
:101770009843FBD12A4C2B4DAC4209D20322231DA6
:101780000335ED1A9543ED1808CC9847AC42FBD1D0
:1017900000F094F8244A204B1A60204A9368DB0139
:1017A0008033FBD14022214B214C224D9A675A674E
:1017B0001A67DA66AC420CD2230007350833ED1AFB
:1017C000393A9543ED1820000834FFF7CDFCAC42C0
:1017D000F9D1194D194CC022A168280000F03AFD3A
:1017E000A560FEF72BFF00F0B9FBFFF787F9144C5B
:1017F000144DAC4209D20322231D0335ED1A954343
:10180000ED1808CC9847AC42FBD170BD00E0004019
:10181000BFCDFFFFFE7F3C0000F0004000C0004055
:10182000780C0020880C0020FFFFFF0100F0014031
:10183000700C0020780C00200000002000ED00E07B
:10184000880C00208C0C0020094A1368002B06D05D
:1018500008491818884208D2106018007047064BD3
:101860000449181813608842F6D301235B42F4E759
:10187000C810002000000420501A002000BEFDE720
:101880000FB400B5084883B000F086FD049B002B20
:1018900007D005A91800019100F082FB034800F071
:1018A0007BFD00BEFDE7C046C8630010D863001092
:1018B00010B50148FFF7E4FFBC63001030B50C2001
:1018C00083B000F077F9FEF7E3FE00280ED09C4BC2
:1018D0009C4A1A605A609A60DA601A615A619A6189
:1018E000DA611A62984A5A6203B030BD974CA06719
:1018F00000F068F90122964B1A60636C012BFCD151
:101900000322944B1A60914A936B012BFCD1C022A5
:10191000914B92011A60914B91491A6010008B68AB
:101920009843031EFAD1022406338E4A01218E48C1
:10193000009400F05BF905238C4A009401218C4847
:1019400000F054F98B4B5A68FF2A02D880225200CB
:101950005A6080227A4C7F4B21691201854D1A60B2
:10196000002900D0E5E0E021824B02201A681140F6
:10197000802252012A431160196848400321014026
:10198000116004219A681142FCD0802280219201CA
:101990002A4309011160802252005A60764B23616C
:1019A000764B5968FF2900D8C1E00322684B734881
:1019B0001A60012103009A681142FCD0E0251A68E0
:1019C000154080225201024315601B684B400321E1
:1019D000194011600221694A93681942FCD08023A2
:1019E00080219B010343090119608021644B490058
:1019F00051606361634B5A68FF2A00D859608022A6
:101A0000614BE16912015F4D1A60002905D06069E0
:101A100000F040FB01300138FDD1E02259490B684C
:101A20001A4080235B012B431A60802380229B0194
:101A30002B4312011A608022424B52004A60E3613C
:101A4000524B5968FF2900D85A608022504B216AB6
:101A500012014E4D1A60002905D0606900F01AFB92
:101A600001300138FDD1E02248490B681A4080233B
:101A70005B012B431A60802380229B012B431201C0
:101A80001A6080235B004B602E4B424A2362424B1C
:101A90005968914201D801325A6080223F4B616AF5
:101AA00012013D4D1A60002905D0606900F0F2FA7C
:101AB00001300138FDD1E02237490B681A408023FC
:101AC0005B012B431A60802380229B012B43120170
:101AD0001A608023DB024B601B4B6362304B5A68F9
:101AE000FF2A02D8802252005A6080222D4BA16921
:101AF00012012B4D1A60002905D0606900F0CAFA66
:101B000001300138FDD1E02225490B681A408023BD
:101B10005B012B431A60802380229B012B4312011F
:101B20001A6080235B004B60154BA361DCE65A60B2
:101B30003BE7606900F0AEFA01300138FDD112E7F1
:101B40006C100020006CDC021BB70000008000401D
:101B50003CB0004030B0004000E0004000F00040E9
:101B600000C00040002F68590080024000389C1CD3
:101B700000C0024030800040001BB7003C800040A5
:101B8000405973075480004054B0004060800040CA
:101B900060B00040FFFF03006C8000406CB000406C
:101BA0004880004048B00040014B8000C05870475A
:101BB0006C10002080239B001843014BD8627047B3
:101BC00000800540AA23064A1B0113602F23054904
:101BD000D360054B19605368002BFCDA7047C04690
:101BE0000040024000B0FA0000600240F8B51D005D
:101BF00006AB1E7801235B42436000230400836030
:101C000001600C20170000F045FA4201121A910100
:101C1000891AC90009188901380000F03BFAC0226E
:101C2000231D92011A432123A06013602368002B17
:101C3000FCDA082336032D043543E5601360F8BD54
:101C400001238340002902D1034A13607047034AED
:101C50001360034A1360F9E780E100E080E200E0EE
:101C600000E100E001238340014A13607047C04651
:101C700000E200E0024B10309B688000C0587047C3
:101C800000ED00E070B50D00EFF3108672B60F4A5C
:101C90001368002BFCD0BFF35F8F0D4B10309B6897
:101CA00084001B590B4A934203D09D4201D0FFF799
:101CB000FFFD074B9B681D51BFF35F8FBFF35F8F25
:101CC0000022024B1A6086F3108870BD240100D0F8
:101CD00000ED00E0CD020010F0B54546DE46574667
:101CE0004E46E0B50D0083B0EFF3108A72B6604A3D
:101CF0001368002BFCD0BFF35F8F10229146814404
:101D00004A465C4B96009B689C595B4B98469C42AC
:101D100005D0AC424AD0594FE31B2F2B12D9554B5B
:101D20009B689C51BFF35F8FBFF35F8F0022504BC6
:101D30001A608AF3108803B03CBC90469946A246CC
:101D4000AB46F0BD012383409B465A464C4B1B6873
:101D50001A4000925A464B4B1A60BFF35F8FFEF752
:101D60001AFA0190002803D0814501D0FFF7A0FDA9
:101D700001232100062099438B688C460A000856EF
:101D80009D420AD15DE043001B1806209B00FB1812
:101D900099681856A94211D01A000028F3DA009B5E
:101DA000002B05D15A46374B1A60B8E71C00B6E73E
:101DB0005A46354B1A60324B1A60B0E7002825DBD3
:101DC0004200111889007D188846A9689960E97950
:101DD000D971062169569971A9797F2913D8AD88DF
:101DE000F91A6D052D1545444919E0250905490DD8
:101DF0002D02294399801218244B9200BF181A789B
:101E00001870BA71CBE7BD210902F3E701990029E7
:101E100020D1002A1CD0FF2090711D4890801B4AC1
:101E2000107898716346DF1BBF10BB00DB191901E6
:101E30005B1819025B1819045B185B00DB1913703F
:101E4000ADE70B000028BBDA019A002A02D16346F5
:101E50004446E4E70F4A1049D21A083A5002400DAE
:101E6000014399800D4952080A43DA8097E7C0463A
:101E7000240100D000ED00E0CD020010740300202A
:101E800000E100E080E100E080E200E08017002057
:101E900000BDFFFFAE03002000F0FFFF00F8FFFFD2
:101EA000F8B5012504000543FEF775F9EFF3108737
:101EB00072B6244A1368002BFCD0BFF35F8F224E0A
:101EC0008000A11B89108A0052181301D218130236
:101ED000D2181304D3181D4A5B005B189168095887
:101EE000A9421CD00622B256934226D01222B256E4
:101EF000934224D01E22B256934214D02A22B256C4
:101F000003219A4210D0124A11781370A171BFF3C5
:101F10005F8F00220B4B1A6087F31088F8BD926820
:101F20000C491150EFE702214A0052189200B618EE
:101F3000FF22B271084AB280E5E70021F4E70121EF
:101F4000F2E7C046240100D07403002000ED00E059
:101F500080170020CD02001000BDFFFFF0B5002269
:101F60000324FF27802620003D00094B11009C46DA
:101F70001040C0008540A14361440B680132AB436F
:101F8000350085402B430B60202AECD1F0BDC046C4
:101F900000E400E010B5002801D000F0A7F910BD62
:101FA00010B5094A84B01468002C09D001220091B0
:101FB0000300524203A90548A047012004B010BD08
:101FC00000F0EAF90020F9E74C170020951F0010F7
:101FD00001480421014B1847C003002001200010D4
:101FE000142310B50100188804331B88984710BDCE
:101FF000162310B50100188802331B88984710BDBE
:10200000F0B5C64600B5002916D0142304000125FA
:1020100098461827890046184346216818883B8847
:10202000984701C4431E984140420540A642F3D15F
:10203000280004BC9046F0BD0125F9E7144A936FCF
:102040009B0815D29066D166002905D0FFE7FFE70F
:10205000FFE7516F106F704704B580210906C21762
:102060005140002800D0C84304F022F9002104BDEB
:10207000936F5B08FDD3F0B5946ED56E576F166FF6
:10208000FFF7E0FF9466D56657671667F0BD00005E
:10209000000000D0134A936F9B0813D2106651665C
:1020A000002905D0FFE7FFE7FFE7516F106F70478A
:1020B00004B5002801D00020C04304F0F9F8002145
:1020C00004BDC046936F5B08FDD3F0B5946ED56E2A
:1020D000576F166FFFF7E2FF9466D566576716676E
:1020E000F0BD0000000000D0132370B51C78012C57
:1020F0000CD015DD0C48FFF77BFF0C4D0100802252
:10210000280000F0A7F8022C0BD070BD074D084A3C
:1021100029002B00803104C38B42FCD1AA64F4E770
:10212000024D034AAA64F0E75344000088170020D8
:102130003521001007B5604601880A0A0230DF2AFF
:10214000FAD1C9B2820804D302884088000410433F
:1021500000E00068014A5050039007BD8817002036
:1021600051434343C9188C46110C83B24B4310B4FE
:10217000040C614392B280B2504362431C041B0CB6
:10218000001910BC59411304120CC018514161448C
:1021900070470000132310B51C781348FFF728FF81
:1021A000012C0BD004DD01008022104800F052F811
:1021B0000F48FFF715FF0F4B186010BD0B4C0100C7
:1021C0005422200000F046F80B4B6365A365E365DD
:1021D00023666366A366E36623676367A367E367B3
:1021E0002362E361E4E7C0465346000088180020FC
:1021F0004C33000088190020FD21001007B560460F
:1022000001880A0A0230DF2AFAD1C9B2820804D34F
:10221000028840880004104300E00068014A5050E2
:10222000039007BD8818002010B502F0ABFF10BD69
:1022300010B502F0C1FB10BD01480421014B184745
:10224000D003002001200010014B1B68184700003C
:10225000D0030020014B5B6818470000D00300202A
:10226000F0B5C646070000B50C00151E30DD0A7833
:10227000037C00200A2A2ED00121012D1BD01A4BED
:10228000984602E03100AE4215D04B1EE25C635C22
:102290004E1C0A2BF6D10D2AF4D03B68884203DA93
:1022A000091A201898473B68022140469847300099
:1022B0003100AE42E9D1854203DD291A3B6820187E
:1022C00098476419013C23780D3B5A4253413B74B3
:1022D00004BC9046F0BD002BCED1034802213B68E0
:1022E00098470120C8E7C04648640010F0B5CE46C4
:1022F000474680B583B06B46DE1CD02330701B068A
:102300001C68224B804601A91800994603F0D8FFAB
:10231000071E2DD1019B9C4225D0484603F0E0FFCB
:102320001B4B01271C68002C26D01A4D02E0E468E4
:10233000002C10D02368002BF9D02A68002A01D085
:10234000A242F4D1627C002A1AD1012130009847C0
:10235000E468002CEED1002F0ED1404603B00CBC37
:1023600090469946F0BD0A4B1C68002CDDD1F4E77D
:10237000074B1C68002CD8D1484603F089FFECE7D6
:10238000012231002000FFF76BFFD0E7700C002026
:10239000C0100020C4100020F0B5DE464546574668
:1023A0004E46E0B583B0804603F01EFAD02301AD5F
:1023B0001B06070029003C481C6803F081FF834688
:1023C00000284DD1019B9C4244D0374803F088FF40
:1023D000364B9A461C6801239B46002C45D00A23A5
:1023E00099463B00324E4746984602E0E468002C8E
:1023F00019D02368002BF9D03268002A01D0A242FC
:10240000F4D1627C002A40D14146380098474B46BF
:102410002B70627C2368002A2BD101212800984769
:10242000E468002CE5D15B464746002B1DD153469E
:102430001C68002C06D06368002B2CD09847E468F9
:10244000002CF8D1380003B03CBC90469946A24617
:10245000AB46F0BD154B1C689A46002CBFD1F1E786
:10246000124B1C689A46002CB9D10F4803F010FF9C
:10247000DDE7227C002A12D102210E4898472B78F2
:102480000D3B5A4253412374B0E7424639002000C5
:10249000FFF7E6FEBBE7E468002CCCD1D2E70121D0
:1024A00028009847EBE7C046700C0020C0100020C1
:1024B000C410002048640010F0B54746CE4680B5F1
:1024C000160083B00F0000282DD11B4B1B4D1A683E
:1024D0005B68019200931A4B99461A4B98464B46FB
:1024E0001C68002C03D114E0E468002C11D02B6888
:1024F000002B01D0A342F7D1A368002BF4D0310008
:10250000380098470028EFDD03B00CBC9046994690
:10251000F0BD434600995B6A9942E0D84246019873
:10252000926A824202D301204042EDE79942D6D01E
:1025300001204042E8E7C04690630010C41000202C
:10254000C010002000400540F0B54F464646D64634
:10255000C0B50F0082B01600012847D1D0231B065A
:102560001C68244B01A918009A4603F0A9FE814675
:10257000002807D1019B9C4204D0504603F0B0FED6
:1025800001239946B046731C03D1380003F02CF99F
:102590008046194B1C68002C15D0184D02E0E468E9
:1025A000002C10D02368002BF9D02A68002A01D013
:1025B0009442F4D1627C002A12D1414638009847F7
:1025C000E468002CEED14B46002B02D0504603F0BD
:1025D0005FFE300002B01CBC90469946A246F0BD9A
:1025E000424639002000FFF73BFED8E7012676423D
:1025F000EFE7C046700C0020C0100020C41000207F
:102600000D4B1A68002A12D0824203D109E0984289
:1026100007D01A00D368002BF9D1002900D0D06070
:1026200070470029FCD1C368D360C160F8E7002976
:10263000F6D01860F4E7C046C010002010B500F0D6
:1026400045F800F027F910BD014B18607047C046EF
:10265000C4100020F0B5002910D020240D270A4B0B
:102660000A4A00269E5F41180578AE4207D093695A
:102670001C42FCD1013015608842F5D1F0BD936950
:102680001C42FCD11760F2E7841700200040034091
:1026900030B5002914DD0C4A9369DB0610D40025FF
:1026A0001024013593691C42FCD113680370A942C0
:1026B00004D0936901301C42F3D02900080030BDDA
:1026C00003204042FBE7C04600400340E12110B533
:1026D0000A4B49021B780A4B0A481B78FDF7E0FFBA
:1026E00002210020FDF722FF02210120FDF71EFF3D
:1026F00001210548FFF784FF10BDC046C8660010E1
:10270000CC66001000400340E003002070B5184C78
:1027100082B005000E00200001A903F0D1FD0028C1
:1027200008D1D0231B061B68019A9A421CD02000B6
:1027300003F0D6FD002001F025FC002807D1032579
:102740006D42200003F0A4FD280002B070BD0020FF
:1027500001F032FC0028F2D029003200002001F004
:102760003BFC051EEBD0ECE703256D42ECE7C046D1
:102770006417002010B51F20FFF774FAFA2000211B
:10278000800010BD10B5064C0021200003F098FD1C
:10279000002804D000F066FD200003F079FD10BD94
:1027A00064170020F0B546464F46D646C0B5364FB2
:1027B00082B080460E00380001A903F081FD002898
:1027C0000ED1D0231B061B68019A9A4205D102B094
:1027D0001CBC90469946A246F0BD380003F080FD2F
:1027E000002001F0CFFB002832D00024002E34DD81
:1027F000264B99469A4612E0002843D100F032FD5C
:10280000002001F071FC002001F0BCFB002824D066
:10281000002001F0A9FC002823D0A6421DDD0020E5
:10282000351B01F0A1FC8542E6DC43462A0019195C
:10283000002001F00BFC050000F014FD002001F069
:1028400053FCFEF7BDFB4B46641918605960E4E782
:10285000002000210D4B18605960380003F018FD6E
:10286000B5E7FEF7ADFB53460D001A685B68002123
:102870008446074812184B419D42EED8CDD194456D
:10288000CBD9EAE70500D0E764170020900C0020C0
:1028900020A1070010B51D4B84B01B7801F070FE1D
:1028A0001B491F20FFF7EEF901211F20FFF7C8F990
:1028B0001848FEF759FCFEF75DF90400FEF780FBAF
:1028C000FA220023920012184B41994218D9012292
:1028D0005242D31701210291002101910E4920009B
:1028E0000091FEF74DF90400631E9C41E4B20028FC
:1028F00003D001210948FFF783FE200004B010BD7A
:102900009942E7D19042E2D8E4E7C046D066001091
:10291000852700106417002075270010F40300209D
:10292000004870472C65001000487047E0640010B4
:1029300010B5002806D1114B11484380063BFF3BE0
:10294000038010BD042817D80E4B8000C258012305
:102950000B4805E05C00013301530132142B08D011
:1029600011780029F6D1C0225B00920013439BB27C
:10297000E6E7CA239B00E3E70020E2E70904000042
:102980009810002040650010F0B54546DE465746D9
:102990004E4698238024E0B5414A6402D35885B05E
:1029A0009846234224D00121392000223D4B19545E
:1029B000597147315A541A753B490132002001F0D0
:1029C000CBF88022394B92021A65394B0393434668
:1029D000DB0613D4802342465B011A423ED14445B4
:1029E00058D105B03CBC90469946A246AB46F0BDD6
:1029F0001023039343460024DB06EBD5284B9F6D41
:102A0000002F25D09946294B002601259B4603E03F
:102A10006D000136202E1BD03D42F9D04B46DB6DB8
:102A20005B469D65012334249A46B3435C43682387
:102A300072085343E4181B4B9C466444200000F08A
:102A400081FA00281AD1AF4301366D00002FE1D181
:102A5000802342465B01039C1A42C0D000221549E4
:102A600000200A700E491C430A600132012101F066
:102A700001F880220D4B12031A65B0E75346E26954
:102A8000217900200093002301F08EF8200000F04F
:102A9000E1F9D8E7414608486140FEF7F1FEC0463B
:102AA00000001150CC1000200000105000301150D8
:102AB000100001007E1700207C65001010B5012178
:102AC0000520FFF7BDF810BD094B10B501221970A4
:102AD0003921002307484254427147328354037519
:102AE000002234300133002100F0B0FA10BDC0469E
:102AF0007E170020CC1000208022024B5202DA64A4
:102B00007047C0460020115070B5050000F07AF9FA
:102B10001D490520FFF7B6F8D0221C4CD200002139
:102B20002000FFF791FB0023194A1A4913701A4A33
:102B300040201160352601221849E2706271E0627E
:102B4000E1600B60A2550236A3552066013E243099
:102B5000A3552354124913484B36FF36A360216115
:102B60002270268720640360E3633433E2540E4B03
:102B700061641A6480229205DA6490220B4928006D
:102B80009950FFF7B9FF70BD89290010CC100020C3
:102B90007E17002080011050501700208400105034
:102BA0000001105080001050000011501010010062
:102BB0000B785B0602D14B78052B09D00121392017
:102BC0000022064B5971195447311A755A547047EF
:102BD000034B1A78034B1A60F0E7C046CC10002074
:102BE0007E17002000001150F8B54746CE46072357
:102BF00080B50A798E784879CF787F21682503409F
:102C0000BF071B02BF0F1343FAB2914672B294463C
:102C100031404D433422A8466546F40962433D489D
:102C2000424482181671EE0F5670EE43F60FD670BE
:102C30004E424E41917056714A46012A5CD0402B5B
:102C40005DD83422682662434E43921982181600DA
:102C5000654630363770D362CE00002D3CDB2E4DFA
:102C60000027AC466644D660376000293CD02B4D27
:102C7000CE00AC4666449660682534224D43AC468F
:102C80006243274F62443E6882181661402B00D28F
:102C900040233F22F318134201D0934340333B605B
:102CA000204B68227340A02636061E434B469D06E5
:102CB00034234A4363439B18C3189B6835431D6004
:102CC00034235C4334335943673B61184354012038
:102CD0000CBC90469946F8BD134D0027AC4666449F
:102CE000D660376000290ED1342300226343C31815
:102CF0009A600E4A1A61E3E70D4A9342A1D919007E
:102D00000C48FEF7BDFD074DCE00AC46664496600C
:102D1000B2E7C046CC1000208400105004001050D0
:102D2000501700200000105080001050000110507B
:102D3000FF0300005465001010B50C003420110092
:102D40001A00E30958437F231C40173B6343C01814
:102D5000034BC018012300F079F9012010BDC046D3
:102D6000CC10002070B57F25342068230D40CC099D
:102D70006B4360430C4EC01830188378002B05D18C
:102D800043785A425341094A0133936680220849E5
:102D9000120100F069F8682334215D436143491949
:102DA0007118673B0B7570BDCC10002000201150CE
:102DB000FFF7FFFF70B57F25342068230D40CC0955
:102DC0006B4360430C4EC01830188378002B05D13C
:102DD00043785A425341094A013393660022084915
:102DE00000F042F8682334215D4300236143491910
:102DF00071180B7570BDC046CC100020003011500A
:102E0000FFF7FFFF80220E4B520410B51A600D4BE6
:102E10000D491A6010008B689843FBD10B4C9C2223
:102E200000212000FFF710FA8022002152010848FB
:102E3000FFF70AFA092363670333A36710BDC0468F
:102E400000E0004000F0004000C0004000001150D1
:102E500000001050002332220375437583548361B0
:102E6000C36103628362704710B5C368002901D053
:102E70001C682140002A11D08024E4001143224222
:102E80000CD01A6822420BD1094A0A401A60FFE7A7
:102E9000FFE7FFE7FFE7FFE7FFE7C368196010BD43
:102EA0004378044A9B0081789A580348FEF7E8FC6F
:102EB000FFFBFFFF080400209065001070B5C37889
:102EC0000400056A002B22D08022D2002A436379B5
:102ED000002B02D0802189010A4301214B406371FC
:102EE0002423E35C002B02D08023DB011A43E1683A
:102EF0000B685B0518D4104B13400B60FFE7FFE72E
:102F0000FFE7FFE7FFE7FFE7E3681A6070BDC2690C
:102F1000836A944663442A0019000069FFF79AF90E
:102F2000842212022A43D2E76378044A9B00A178E4
:102F30009A580348FEF7A4FCFFFBFFFF080400209B
:102F400090650010F8B5467D0400002E00D162E0C7
:102F5000C368C0781D68E169AD05AD0D002837D1A3
:102F60006918E161A269551A402D2FD86B189B1A78
:102F70005F427B412427DBB22562E3558A424FD36F
:102F800022D000283BD08022D20015436279002A4B
:102F900002D0802189010D4301214A406271002B3A
:102FA00002D08023DB011D43E26813685B053AD43D
:102FB000214B2B401360FFE7FFE7FFE7FFE7FFE749
:102FC000FFE70026E3681D603000F8BD4025CDE72F
:102FD000A36A2A0058182169FFF73CF9E369E078F1
:102FE000E918E1610028BDD0236A9D42BAD20023CE
:102FF000012223622433A1610600E254E4E7A36ABC
:103000002A009C4620696144FFF724F984231B02AF
:103010001D43E35DBAE78178084A0948FEF730FCB2
:103020000848FEF72DFC6378044A9B00A1789A5863
:103030000548FEF725FCC046FFFBFFFF0804002003
:10304000B0650010DC6500109065001070B51E00C2
:103050000400437D002E48D0002B03D000230375CD
:10306000322023540023A261E361151C402A31D889
:103070000123ADB2521B63755342534124262522CE
:103080000020DBB22562A162A355A054E278002A99
:1030900022D08022D2002A436179002902D08020E8
:1030A00080010243012041406171002B02D0802346
:1030B000DB011A43E1680B685B054FD42E4B1340CC
:1030C0000B60FFE7FFE7FFE7FFE7FFE7FFE7E368E6
:1030D0001A6070BD4025CBE72A002069FFF7BAF8D7
:1030E000842212022A43A35DD6E7002B3ED0C36898
:1030F000C0691D68E378AD05AD0D002B15D128180A
:10310000E061A269131A402B0DD823621B189B1A89
:1031100059424B412421635482421CD3D9D0200010
:10312000FFF7CCFED5E74023EFE7A36A2A009C46D1
:1031300021696044FFF78EF8E369E818E378E061FD
:10314000002BDED0236A9D42DBD224230122A06122
:103150002662E254BDE70948FEF792FB6378084A0D
:103160009B00A1789A580748FEF78AFB8178044AA9
:103170000548FEF785FBC046FFFBFFFFDC6500103E
:103180000804002090650010B0650010024B5878CC
:10319000431E9841C0B2704718100020024B1878A7
:1031A0004007C00F7047C04618100020F8B53722FE
:1031B00000212348FFF748F8224C2000FDF7D4FFF8
:1031C000214B1C60214C20001830FDF7D9FF200056
:1031D00001F0DCFB1E4B1C601E4B002B26D01E4D4D
:1031E0000024280000E000BF1C4E2B7830601C4FEC
:1031F0000AE0E3001B1B32689B009B589847013490
:103200002B78E4B2A34209D39C42F2D314D13B0001
:10321000984701342B78E4B2A342F5D20020FFF79F
:1032200073FC0020FFF74AFC0120F8BD00F0ACFF62
:10323000094B1B78002BF1D000231B68FFDEC04632
:1032400018100020D00F0020501000201004002083
:1032500054100020000000007C170020E80C002023
:1032600089410010F0B5DE4657464E464546E0B56A
:103270008BB001F095F9002800D16CE1CA4B07AC86
:103280009A46CA4B9B4653461E68B269EFF31081BB
:1032900072B61368002BFCD0BFF35F8FF161300072
:1032A000210001F0DFF9B2690500F369BFF35F8F18
:1032B0000021116083F31088002800D14BE163786E
:1032C000082BE0D85A469B00D3589F466368002BD2
:1032D000D9D0A0689847D6E77F222179B44B0A401D
:1032E0005500C8095B191B181800012620304579C4
:1032F000B543457145790336B5434571002A00D180
:1033000072E1AC4ADB7C002A00D169E1AA4A12785A
:10331000934200D362E1DA00D31AA84A9B001268F4
:10332000D318002B00D116E15D6962792078A3687B
:10333000A847A8E79E4B012299461B78002013431B
:103340004A4613702378019300F092FD602326799A
:103350003340602B00D11EE1402B00D10BE1F6067B
:10336000F60E012E00D151E1002E00D142E1022ED5
:1033700000D010E17F27217A0F40082F00D90AE101
:10338000CA099046002B00D16EE100257F004F4412
:10339000884A4744FB7C002A00D133E2864A1278EF
:1033A000934200D32CE2854ADE00F31A16689B0094
:1033B000F618002E00D069E2602223791A4200D06C
:1033C000E6E0002000F054FDE2E07D4B002B00D150
:1033D00059E700E000BF56E77A4B002B00D152E7D7
:1033E000734B18780007C00F00E000BF4BE7724E28
:1033F000704A3378002A00D1A7E000251A006F4FE9
:10340000AB4213D93968EB008C465B1B9B006344CD
:103410009B69002B0DD02078984701353278EDB2AA
:10342000954200D92FE71300AB42EBD8AB4200D056
:103430008EE00135EDB2954200D924E71300F3E7A1
:10344000372200215A482778FEF7FEFE1022FF217E
:103450005D48FEF7F9FE56481222FF211330FEF7B1
:10346000F3FE00F0FBFC544E524A33780025002A4C
:1034700062D0564A9146514A90460EE04246126842
:10348000EB0094465B1B9B0063445B6838009847E5
:1034900001353378EDB2AB420AD39D42EED351D120
:1034A0004B463800984701353378EDB2AB42F4D241
:1034B000474B002B00D1E6E600E000BFE3E63C4BC3
:1034C00037229946002118002778FEF7BDFE4B46AB
:1034D0001022D81CFF21FEF7B7FE48461222FF211A
:1034E0001330FEF7B1FE00F0B9FC334E314A3378A9
:1034F0000025002A36D0314A90460EE04246126836
:10350000EB0094465B1B9B0063445B683800984764
:1035100001353378EDB2AB420AD39D42EED311D1DF
:103520002A4B3800984701353378EDB2AB42F4D2DC
:103530004A4623799370A6E6380000F061FE33789E
:10354000002BB5D000235B68FFDE002B00D19AE68C
:1035500000239B69FFDE0BB03CBC90469946A24617
:10356000AB46F0BD380000F04BFE3378002BDFD0C7
:1035700000235B68FFDE174B002B0CD01648002899
:1035800001D000F075FC08A9019800E000BF05001B
:10359000002D00D077E620780021FFF7E3FB2078AC
:1035A0008021FFF7DFFB6EE654100020006600105C
:1035B00018100020000000007C170020E80C0020FC
:1035C00000000000000000001B100020014200105D
:1035D0000000000000000000000000009B1ADBB2A9
:1035E000002BB8D1B24DA0E662792078A36800F034
:1035F00053FC48E6202B00D1E3E0002BCBD16379CC
:10360000092BC8D8AB4A9B00D3589F46237A0F2B6F
:10361000C1D8A94A4B44DB78002A3BD0A74A12788C
:10362000934235D2A64ADD00EB1A15689B00ED18CF
:10363000002DB0D0286900F01BFCEB6808A90198A8
:103640009847002800D01EE6602322791340A2D1BB
:1036500062790A2A9FD106AA0232137008A901339F
:10366000019800F0A1FB0EE663790293012B00D1D3
:10367000F8E0002B00D1E4E0032B8CD1E3887F003D
:10368000002B00D104E108A9019800F075FB7EE64B
:103690009B1ADBB2002B00D07DE78A488A4DCAE72F
:1036A0004B46A27903925B78002B02D1002A00D00E
:1036B00010E14B46039A08A901985A7000F05CFB90
:1036C000E1E54B4606AA5B780232137008A9012394
:1036D000019800F069FBD6E5E388D8B21B0A0F2BEE
:1036E00000D958E7794A9B00D3589F4608A800F0B4
:1036F000C5FBA1790198FFF7E7F94B4602221B7839
:1037000013434A461370BEE5E388012B00D042E71D
:103710004B4608221B7893434A4608A90198137028
:1037200000F02AFBAFE54B460220197806AB9A1C45
:103730008B0689080140DB0F0B43138008A9022385
:10374000019800F031FB9EE5E388012B00D022E7D1
:103750004B4608221B781343DEE75D4B002B00D15C
:1037600019E700E000BF021E00D114E7137808A992
:10377000019800F019FB002800D084E50BE72189AF
:10378000FFF7D6F8021EF1D105E7FFF7CDF8051EC9
:1037900000D100E706AB9E1CA91C02223000FEF7F8
:1037A00059FD33882A0008A9019800F0FDFAE2E7E4
:1037B000FFF7B6F81223020008A9019800F0F4FA06
:1037C000D9E7237A0F2B00D9E5E63B4A4B44DB7857
:1037D000002A30D0394A127893422AD2384ADD0082
:1037E000EB1A15689B00ED18002D00D1D3E628696F
:1037F00000F03EFBEB6808A9019898470500C7E672
:103800009B1ADBB2002B00D0D6E52E482E4E00F0DE
:103810002FFBF36808A901989847002800D1CBE551
:10382000602223791A4200D02DE5002000F020FB11
:1038300029E59B1ADBB2002B00D0ACE62148224DD3
:10384000D6E74B467F00DB19434420335B7906AA59
:103850009B07DB0F0232138008A90223019800F0B6
:10386000A3FA94E5E3887F00002B00D00BE70198D2
:10387000FFF7A0FA4B46DB19434420335A790299EB
:10388000B2435A715A798A435A71FCE63069BEE7ED
:103890000198FFF767FA4B460221DB1943442033B6
:1038A0005A790A4301215A715A790A435A71EAE650
:1038B000C543001024660010000000007C170020A3
:1038C000E80C0020114300108C6600104C660010BC
:1038D00000000000501EC0B2FFF726F8002800D1FB
:1038E00059E64378022B00D055E60125C37910260E
:1038F0005A112A4011014A4612789B11B2430A43D9
:1039000020212B408A435B0113434A460700137072
:10391000C37882781B021343C318093704939F426C
:1039200000D389E04D4B984600237A7805930B2A03
:1039300004D13B780597FB181F005A78042A00D061
:1039400029E6049B464ADB1B9BB20293454B0025AC
:103950001B78002A15D119E042461268EB00944604
:103960005B1B9B0063449B68029A3900019898474F
:1039700000281AD13B4B01351B78EDB2AB4200D287
:1039800009E69D42E8D30DD1374BEDE7029A3900A5
:10399000019800F047FC061E5DD1324B1B78002BCE
:1039A00000D1F8E500239B68FFDE0600082E00D852
:1039B000F1E5029B9E4200D9EDE54A46BB78D2185C
:1039C000D178FF2900D0E6E50598D570002814D0FD
:1039D0008178994200D0DEE502797B799A4200D065
:1039E000D9E5C278012A08D9023A04314944D2B251
:1039F000080001322900FEF727FC7F213A0000234E
:103A00008C465178052907D16146907801404900DC
:103A100049441331C0090D5411785B189BB25218F8
:103A20009E42EED80F4BBF191B78AB4200D2B2E5D5
:103A3000049BBB4200D977E70C4B002B00D138E642
:103A400000E000BF35E60A4B002B00D1A3E500E003
:103A500000BF05009EE6024DA8E7C046E80C002026
:103A6000000000007C17002025420010000000002C
:103A70000000000070B584B06B4606000C0001AD7C
:103A80000A220021981DFEF7DFFB2E706C70032CBC
:103A900008D01BD9042C07D0052C40D12C4B1A7808
:103AA000D20746D404B070BD294B1A78D207F9D595
:103AB00004211A780A431A70264B1C68A269EFF396
:103AC000108172B61368002B19D1FBE7022C26D1A6
:103AD00001211F4B1A788A431A701A780331A243C6
:103AE0001A7000225A701A788A431A70194B1C688F
:103AF000A269EFF3108172B61368002BFCD0BFF3FC
:103B00005F8FE1612000290000F07EFEA269E36979
:103B1000BFF35F8F0021116083F31088C2E70D4B64
:103B20001C68A269EFF3108172B61368002BE6D10E
:103B3000FBE704211A788A431A70064B1C68A269B5
:103B4000EFF3108172B61368002BD8D1FBE7C046A3
:103B50001810002054100020002330B585B001ADAE
:103B60006B8028700633082202A86B70FEF772FB88
:103B70000C4B1C68A269EFF3108372B61168002920
:103B8000FCD0BFF35F8FE3612900200000F03CFE12
:103B9000A269E369BFF35F8F0021116083F310888E
:103BA00005B030BD54100020F0B5C64600B584B055
:103BB0001D006B4680460F00160000210622981D4E
:103BC000FEF742FB434601AC2370072363700F4BA3
:103BD00065711D682771A660AA69EFF3108372B63C
:103BE00011680029FCD0BFF35F8FEB612100280032
:103BF00000F00AFEAA69EB69BFF35F8F0021116034
:103C000083F3108804B004BC9046F0BD541000202B
:103C1000F0B5D6460C0000B58246002A29D0497876
:103C2000052928D1E17889078D0FAB4223D1561E93
:103C300000270EE0069A13702378E418B74218D0D4
:103C40006378052B17D1E37801379B079B0FAB42B5
:103C500011D121005046FEF7C7FF00280BD0A378F2
:103C6000DA09012AE6D1079A13702378E418B742DB
:103C7000E6D1012000E0002004BC9246F0BDC04621
:103C800010B5FEF7B1FF10BD7F2370B50B40134C8C
:103C90005B00C909E418641820346579ED07ED0F5D
:103CA00004D163795B0703D5280070BD0025FBE7CD
:103CB00001210B4E4942306802F00AFB6379DB07B1
:103CC00007D463795B0704D4042201256379134385
:103CD0006371306802F0DCFAE6E7C0461810002095
:103CE0005010002070B50D0001210F4C4942206892
:103CF00002F0EEFA7F2129404B000C49ED09C9186A
:103D0000491920314B790025DB0707D44B795B0734
:103D100004D504224B79013593434B71206802F09E
:103D2000B7FA280070BDC0465010002018100020BF
:103D300070B57F240C4065000E4C06006419C8095C
:103D40002418203465790020ED0700D570BD0125C9
:103D50006079284360713000FEF7EEFF0028F5D14E
:103D600001226379934363716379033293436371EF
:103D7000ECE7C0461810002070B50A4C0600082277
:103D800020000D00FEF766FA00230021A360E36027
:103D900069563000C943C90FC9010022FEF7CCFFA4
:103DA00070BDC046BC0F0020F0B5C6469046294CF9
:103DB000082200B5060020000D001F00FEF74AFA99
:103DC0004346A3600023E381EB79AA791B021343E6
:103DD0001A1CBB4200D93A1C97B2A281002B12D008
:103DE000002F1DD04346002B2ED03B1C402F1DD84A
:103DF0009FB223787F2B1ED80021174A3B0030004A
:103E0000FEF79AFF09E0002169560023C943C90F54
:103E1000C90100223000FEF78FFF04BC9046F0BDC0
:103E200023787F2B12D800210022E7E740239FB29E
:103E300023787F2BE0D9084C3A0041462000FEF75A
:103E400009FA80212200D9E70020E6E7802100223C
:103E5000D4E7C046BC0F0020D80F002010B51422B4
:103E600000210248FEF7F0F910BDC046BC0F00204B
:103E7000014B18617047C046BC0F002010B5054CBF
:103E8000010008222000FEF7E5F90023A360E360AB
:103E900010BDC046BC0F0020F8B5374C1E0023787B
:103EA0000700DA09C9098A420BD00025002E06D185
:103EB000324B0135002B02D02100FEF779FE28009D
:103EC000F8BDA0687F2B07D800250028F7D0320066
:103ED0002B49FEF7BFF9A068E289E388921992B2F4
:103EE0008019E281A060934201D03F2E13D823694C
:103EF000002B04D021003800984700281FD0002153
:103F000061560023C943C90FC90100223800FEF7DA
:103F100013FF0500D3E7A589A91A0E1C89B2402911
:103F200017D82378B6B27F2B15D80021AA421DD00E
:103F3000134A33003800FEF7FFFE0500BFE70021FB
:103F40003800FEF70FFF80213800FEF70BFF012538
:103F5000B5E74026E5E7AA420AD0094C0100320045
:103F60002000FEF777F980212200E2E70022E0E757
:103F700080210022DDE7C046BC0F0020B12B0010DD
:103F8000D80F002010B50400FFF700F9002801D178
:103F9000002010BDFFF702F90028F9D160000019D8
:103FA0000301181A034B0001181803790120184067
:103FB000EFE7C046EC0C002003004000C01810B52D
:103FC0000301181A0001034B1030C01800F02CFB3D
:103FD00010BDC046EC0C0020F0B5440020180401D0
:103FE000241A24012500C646174E1035AD1900B518
:103FF00092B2280000F08CFB0700280000F022FBA2
:104000003F2803D8380004BC9046F0BD3319D97856
:1040100000209846FFF738FE0028F3D0280000F073
:1040200011FB3F2805D843460020D978FFF75AFEF8
:10403000E8E794239B00E21843469219D9780020C0
:104040004023FFF775FEDDE7EC0C0020F0B54400DF
:1040500020180401241A24012500C646214E2835C3
:10406000AD1900B592B2280000F012FC070028003C
:1040700000F0DAFA3F2803D8380004BC9046F0BDBF
:10408000280000F0D1FA0028F6D0331999780020E2
:104090009846FFF7F9FD0028EED0A4239B009C462C
:1040A0006444A41928004022210000F031FB051EC1
:1040B00003D0FFF76BF8002805D14346997800201C
:1040C000FFF710FED8E7FFF769F843469978002814
:1040D000F5D11B79DB07F2D52B0022000020FFF77A
:1040E00027FEC9E7EC0C0020F8B5440020180401B5
:1040F000241A240125001B4E2835AD19280000F094
:1041000093FA002801D10020F8BD3719B9780020B2
:10411000FFF7BAFD0028F6D0A4239B009C46644418
:10412000A41928004022210000F0F2FA051E03D055
:10413000FFF72CF8002804D1B9780020FFF7D2FD52
:10414000E1E7FFF72BF8B9780028F6D13B79DB07D8
:10415000F3D52B0022000020FFF7EAFD0028D2D083
:104160002800D1E7EC0C002003004000C01810B577
:104170000301181A0001034B2830C01800F062FA3E
:1041800010BDC046EC0C0020B42270B51A4C82B0B1
:10419000920000212000FEF757F8FF236371174BB0
:1041A0008025E380012300262100200023816D006B
:1041B000073323732A0040310096073B103000F08C
:1041C000F5F92100200041312A00FF31009601233A
:1041D000283000F0EBF990239B00E5182800FCF74D
:1041E000C3FF92239B006562E5182800FCF7BCFF23
:1041F000E56302B070BDC046EC0C002000C2FFFFBA
:1042000010B5074C052200212000FEF71DF8200004
:10421000103000F0BBFB2000283000F0B7FB10BDD1
:10422000EC0C0020F0B54B7983B00600022B03D0D4
:104230000025280003B0F0BD8B79022BF8D1CB7993
:10424000062BF5D82F4FBB78002BF1D18B780925A1
:104250003B700C780C196378242B0BD1082A02D8F8
:104260000FE0AA420DD32378E418ED186378ADB2BD
:10427000242BF6D0052B1CD0042B02D163790A2BFA
:1042800025D0214C200000F0DDF93F28D1D92600AF
:10429000103EF1780020FFF7F7FC0028C9D020007D
:1042A00000F0D0F93F2823D8F1780020FFF71AFD5D
:1042B000BFE721003000FFF7E3FC0028B8D0A37867
:1042C0007B702378ED18E418ADB26378D4E70F4B18
:1042D0002778019301330093E11902230222300071
:1042E000FFF796FC0028A3D00E35ED19ADB2C8E754
:1042F00090239B00E218F17840230020FFF718FD7F
:1043000097E7C046EC0C0020FC0C0020EE0C0020CF
:1043100060230A7870B513400024202B01D02000C0
:1043200070BD0A4A4B790D7910781B022B439842D5
:10433000F5D14B780134202BF1D1054B002BEED079
:10434000911D002000E000BFE9E7C046EC0C002012
:104350000000000060230A7870B513400024202B71
:1043600001D0200070BD154A4B790E7915781B02DB
:1043700033439D42F5D14B78202B1CD3212B05D8FC
:1043800006320723FFF710FD0124EAE7222B12D1A2
:10439000CD788B782D021D431571FFF7EDFC084B8E
:1043A0000124002BDDD029006A0822402140002092
:1043B00000E000BFD5E70024D3E7C046EC0C0020A6
:1043C00000000000F0B546464F46D646C0B59846B8
:1043D000664B8146DA780E008A4200D06EE0424693
:1043E000002A65D0624A002A2ED0942292009D189D
:1043F000AA461F001C00C24410372900380000F0F4
:1044000003FA6379FF2B03D02978994200D175E034
:104410000135AA45F1D1574B002B05D0380000F0EB
:1044200003F9002800D093E0380000F00BF93F2892
:1044300068D8103FBB789E4215D0012420001CBCD8
:1044400090469946A246F0BD942292009C1842469E
:1044500010331F00A51821003800013400F0D4F9F2
:10446000AC42F8D1D7E7444B002B02D0002000E04B
:1044700000BF424C200000F0D7F8002823D12000D4
:1044800000F0D2F80028D8D14346002BD5D09B06A7
:10449000D3D1283CA1784846FFF7F6FB2500041E3F
:1044A000CBD0A978002300224846FFF741FCC5E79E
:1044B00010331F002F4B002BB0D1B5E79B788B42F8
:1044C000D1D00024BAE72500283DA9780020FFF7C5
:1044D000DBFB0028D3D09A239B00E6184022310052
:1044E000200000F015F9071E03D0FEF74FFE00284C
:1044F0001DD1A9780020FFF7F5FBC0E7002000E000
:1045000000BF85E73C00103CE1780020FFF7BCFBD2
:10451000002801D1A3788EE7380000F093F83F28F7
:104520001AD8E1780020FFF7DDFBA37883E7FEF7D8
:1045300035FEA9780028DDD12B79DB07DAD53B00E1
:1045400032000020FFF7F4FB002800D075E796E763
:10455000002000E000BF67E790239B00FA18E17895
:1045600040230020FFF7E4FBA37864E7EC0C002075
:10457000000000000000000000000000140D0020FA
:1045800070B5064D2C78002C01D0200070BDFEF7D0
:104590000DFE0028F9D001232B70F6E77D170020CF
:1045A000014B18787047C0467D170020F8B5474684
:1045B000CE4680B5984608AB1F7880230500894613
:1045C00014001B0200269A421AD8406900281CD009
:1045D0000121494201F07CFE4B462B604346AC80F2
:1045E0006400A4B26869EB80631E6442EE812F729E
:1045F0002E82AB816C810136002801D001F048FE8B
:1046000030000CBC90469946F8BD43465400A4B215
:10461000EB80631E6442EE8129602E82AA802F7295
:10462000AB816C810126EBE7C189028A89B292B223
:104630008B1A9BB2914202D240891B1A9BB218007E
:104640007047C04610B5C489018AA4B289B2631A02
:1046500082889BB28C4202D240891B1A9BB2D01A2C
:1046600080B210BDF8B5040040690D00002803D0E9
:104670000121494201F02CFEE089218A80B289B2F1
:10468000431A9BB2884202D262899B1A9BB2A288CB
:10469000A6899A4208D2871ABBB2B8422FDA60893B
:1046A0001B1A9BB223821300002B2BD0B14206D9D8
:1046B0006389C91889B28A4203D8891A89B28A42A1
:1046C000FBD92368E2889C46514328006144FDF7EA
:1046D000C1FD01250122238AA6899BB2591C9B1882
:1046E0009BB28E4207DB60692382002801D001F073
:1046F000CFFD2800F8BD62899B189BB2F3E7B74253
:10470000D0DDCCE7238A00259BB219000022E6E722
:10471000F0B5C6460400406900B58846160000287A
:1047200003D00121494201F0D3FDE789238ABFB2BA
:104730009BB2FD1AADB29F4202D26289AD1AADB2F0
:10474000A088A189A8420AD23B1A9AB29F4234DAC1
:104750006389D21A92B205002282238A9BB2002D6D
:104760002ED0321CAE4242D895B28B423BD89842F2
:1047700003D81B1A9BB29842FBD919002668E2881D
:10478000B44651435E196144864235DDC31A9EB278
:1047900072434046FDF75EFDE388AA1B1800704394
:1047A0005A4340442168FDF755FD218A89B24B19CF
:1047B0001A00994225DD9BB208E08B42CBDDC7E7AA
:1047C000228A92B213009BB2914202DA62899B184C
:1047D0009BB260692382002801D001F059FD2800B6
:1047E00004BC9046F0BD62899B189BB2BFE72A1CAF
:1047F00095B28B42BBD9F6E76A434046FDF72AFDE6
:10480000D3E7A189DFE7C046F8B5040040690E0090
:10481000002803D00121494201F05AFDE589238A8D
:10482000ADB29BB2EA1A92B2AB4202D96389D21AF4
:1048300092B2A388934227D0A2892800AA4206D226
:104840006089281880B2834203D8C01A80B283429C
:10485000FBD92368E2889C46504331006044FDF751
:10486000F9FCA389AB420AD90135ADB26069E58193
:104870000127002801D001F00BFD3800F8BD638945
:10488000ED180135ADB2F1E7277A002FD4D1F4E766
:10489000F0B54F464646D6460400C0B588461500DA
:1048A0000027002A53D04069002803D00121494243
:1048B00001F00EFDE388E6899A46208A237AB6B293
:1048C00080B2A188002B48D1331A9BB2864202D213
:1048D00060891B1A9BB2CB1A1F1C9BB2AB424DD8EE
:1048E000BFB23D00A0893300B04205D26389F318FE
:1048F0009BB201E05B1A9BB28B42FBD2504622680E
:10490000584394465A1960448A4231DDCB1A9BB20F
:10491000524699465A434146FDF79CFC4B46E18876
:10492000EA1A4A43594320684144FDF793FC75193C
:10493000B54202DBA3899D4224DD6389F618BE19C6
:10494000B6B26069E681002801D001F0A1FC380010
:104950001CBC90469946A246F0BD2F008D42C1D99D
:1049600053466D1A5D43E081A8440F000D00B9E77E
:10497000524641466A43FDF76DFCD8E72F1CBFB293
:104980003D00AFE7BE19B6B2DBE7C04610B5040084
:10499000406900280DD00121494201F099FC002313
:1049A0006069E3812382002801D001F071FC0120BD
:1049B00010BDE0812082FAE710B5044B0A001B68A5
:1049C0000100180000F004F810BDC04630040020BB
:1049D00010B5514300F0EAFB041E1CD00300083B55
:1049E0005A6803239A43043A242A16D80300132A48
:1049F0000DD900210833016041601B2A07D981606D
:104A0000C160242A0DD103000161183341610022E5
:104A10001A605A609A60200010BD0021FDF714FC56
:104A2000F9E703001033F2E7F0B5C64600B50C23F2
:104A3000CA5E804693B20C00190746D480231B013E
:104A400013436268A381002A5FDDA56A002D5FD051
:104A500042464146166800229BB20A60E169DA04C8
:104A600000D57EE0012300224046A847431C55D0D4
:104A7000A389A56AE1695B0706D56368C01A236B41
:104A8000002B01D0E36BC01A002302004046A84768
:104A9000431C4FD0A389364A13400022626022692A
:104AA0001BB2A3812260DB0459D44346216B1E60F4
:104AB00000292DD023004033994202D0404600F017
:104AC000E7F900230020236323E02669002E1FD08E
:104AD00022682660951B00229B071DD0A260002D36
:104AE00004DC15E036182D1A002D11DD2B003200E4
:104AF000E1694046676AB8470028F3DCA389402291
:104B000001201343A381404203E0E26B002A9CDCB6
:104B1000002004BC9046F0BD6269DFE743461B6895
:104B2000002BA5D01D2B01D0162B1CD143460020F5
:104B30001E60EEE743461D680C22A35E1D2DDED8E5
:104B40000C490122E9408A43D9D1094962602269AE
:104B50000B40A3812260DB04A7D5002DA5D12065E1
:104B6000A3E7206D87E74022A3891343A381D0E701
:104B7000FFF7FFFF0100402070B504000D00002882
:104B800002D0836B002B09D00C22AB5E0020002BDF
:104B900003D029002000FFF747FF70BD00F000F9A7
:104BA000F2E7C04610B5011E04D0054B1868FFF7A8
:104BB000E3FF10BD034B0449186800F075FAF8E7ED
:104BC00030040020A8660010794B001000207047C8
:104BD00010B5024900F068FA10BDC046995800109F
:104BE000F0B5D6464F464646304BC0B5C363B823F2
:104BF000002403229B00C45004334568C25008338C
:104C0000C218043BC2500600042328006C662C60C6
:104C10006C60AC60EB602C616C61AC6108220021BF
:104C20005C30FDF711FB224B224F9A462B62224B40
:104C3000EF6299466B62214BED61AB62B5689846B5
:104C400028001F4B6C662C606C60AC60EB602C61C4
:104C50006C61AC61082200215C30FDF7F5FA534627
:104C60002B624B466B624346EF62AB62ED61F568C7
:104C7000144B2800EB606C662C606C60AC602C619F
:104C80006C61AC61082200215C30FDF7DDFA53460F
:104C90002B624B466B624346AB620123EF62ED61D0
:104CA000B3631CBC90469946A246F0BDD14B0010A0
:104CB00049570010DD57001075570010B15700100C
:104CC00009000100120002000020704770B568243E
:104CD0004A1E54430E002100743100F067FA051E8D
:104CE00009D000232200036046600C30A8606832BF
:104CF0000021FDF7A9FA280070BDC046204B70B511
:104D00001D680600AB6B002B2AD0B8239B009C4685
:104D100065446B68AC68013B03D51CE06834013B1B
:104D200019D30C21625E002AF8D100252000154B12
:104D3000656625606560A560E36025616561A561C4
:104D4000082200215C30FDF77FFA25636563656406
:104D5000A564200070BD2868002805D00500D8E7AC
:104D60002800FFF73DFFD0E704213000FFF7AEFF3A
:104D700028600028F2D10C2300243360E9E7C04604
:104D8000A86600100100FFFF10B5034B0349186827
:104D900000F08AF910BDC046A866001099580010AE
:104DA000836B10B5002B01D1FFF71AFF10BDC04671
:104DB0007047C0467047C0467047C0467047C046FF
:104DC00010B5034B0349186800F04CF910BDC046FC
:104DD00030040020CD4B001010B5034B0349186878
:104DE00000F040F910BDC04630040020C94C00104E
:104DF000F8B50C00060000F091FC204FBB685D6820
:104E000003239D431E4B2C1B9C466444240B1D4BCB
:104E1000013C24039C4207DD0021300000F082FCAD
:104E2000BB685B19984204D0300000F079FC002088
:104E3000F8BD6142300000F075FC431C0DD001222A
:104E4000BB682D1B15435D600F4B30001A68141BA7
:104E50001C6000F065FC0120EAE70021300000F052
:104E600061FCBA68831A0F2BDEDD08490968401A15
:104E70000549086001210B435360D5E7680800200D
:104E8000EF0F0000FF0F0000B80C002060080020AA
:104E9000F8B5CE464746050080B50C1E55D000F04B
:104EA0003DFC210008394F68012438000323A0434A
:104EB0000A1856689E43B146644EB368934229D09F
:104EC0004B465360D3189C463C4242D10F68C91BE5
:104ED0008B68C019984663465F6808239C46B444B3
:104EE0002740E0456AD04346CC68DC60A360002FD1
:104EF00032D1012448440443A0469368544C0F180F
:104F0000A34200D17FE0D268DA60936043464B60F1
:104F1000386025E003004B443C4206D10A68891AF8
:104F200088689B18CA68C260906001221A434A6070
:104F3000484AB16012689A4204D8474B2800196861
:104F4000FFF756FF280000F0EBFB0CBC904699469B
:104F5000F8BD5F682740CCD0012303434B60085065
:104F60003E4B98421AD9430A042B33D882091400C5
:104F700039323834D200B218083A936803279A427B
:104F800039D05C68BC43844233D99B689A42F8D1DB
:104F9000D368CB608A609960D160D3E7C008FF3BDB
:104FA0008210FF3B93407268C00013437360861900
:104FB000B368CE608B60B160D960C3E7002F41D188
:104FC000030090684B44D2681C43C26090604C6000
:104FD000CB50B7E7142B07D9542B1CD8020B140065
:104FE0006F326E34D200C6E71C005C335B34DA00EB
:104FF000C1E71A00CCE70123A410A3407068034363
:1050000073601300C5E7D9609960CB608B6043463D
:105010004B60386096E7AA225200934205D8C20B33
:10502000140078327734D200A5E70D4A934205D8B0
:10503000820C14007D327C34D2009CE7FE227E2458
:10504000920098E704434C6010607BE768080020FA
:105050007008002064080020B40C0020FF0100004C
:1050600054050000B823F0B5C6469B00C71800B52C
:1050700088460026002F13D07B68BC685D1E0CD4C8
:10508000A389012B06D90E22A35E013302D0200092
:10509000C04706436834013DF2D23F68002FEBD190
:1050A000300004BC9046F0BDF8B54746CE4680B50A
:1050B000B8278046BF00474489460026002F14D0F9
:1050C0007B68BC685D1E0DD4A389012B07D90E2215
:1050D000A35E013303D021004046C847064368342D
:1050E000013DF1D23F68002FEAD130000CBC904660
:1050F0009946F8BDF0B5C64600B51C00150086B04F
:1051000001AB039301236543071E90460C9E01915A
:1051100002950595049302D0836B002B1DD00C23C0
:10512000F25E80239B011A4205D11343B381726E54
:105130000B4B1340736603AA3100380000F000FCEB
:1051400003002000002B04D005984146281AFCF7E4
:10515000A1FF06B004BC9046F0BDFFF721FEDEE7DC
:10516000FFDFFFFF10B50400054882B00068009320
:1051700013000A002100FFF7BDFF02B010BDC046BA
:105180003004002010B5034B0100186800F00EF841
:1051900010BDC0463004002010B5034B0100186854
:1051A000FFF776FE10BDC04630040020F0B557462C
:1051B0004546DE464E46E0B50D000B3583B0070090
:1051C000162D28D8102900D9C1E000F0A7FA102523
:1051D00018230220CE4EF3181A005C68083A944255
:1051E00000D160E1032362689A431300E268A1687A
:1051F000CA6091600122E318596838000A435A6076
:1052000000F08EFA2000083003B03CBC904699466E
:10521000A246AB46F0BD07239D4300D597E0A942C7
:1052200000D994E000F07AFAF823FF339D4200D8C9
:105230005EE1680A00D18EE0042800D939E1382304
:105240009846A80980443930C100B14E7118083918
:10525000CC68A14218D0032362689A431300521B02
:105260000F2A00DD1DE1002AC0DA03239C4608E076
:105270006246636893435A1B0F2A00DD11E1002A3E
:10528000B4DAE468A142F3D13200346908329442BE
:1052900067D00323616899438A460B00491B0F2995
:1052A00000DD12E1726132610029A3DA994A924568
:1052B00000D948E1DB08FF3A9910FF3A8A40DB0049
:1052C00071689B190A4399687260E360A1609C60F1
:1052D000CC60012183109940914248D80A4205D1FF
:1052E00003239843490004300A42FBD00323984625
:1052F000C3009946B144CC4682466346DC68A44567
:1053000007D1F9E0002A00DB0EE1E468A44500D1F2
:10531000F2E04246636893435A1B0F2AF2DD0120F4
:105320008046611905436560A068E5680836C56078
:10533000A8604046F160B16010434860CE608E6066
:105340003800E25000F0ECF9200008305CE70C2354
:1053500000203B6058E780213F2389004020984689
:1053600073E701217268831099409142B6D90323F3
:10537000B46862689A439046AA4203D3531B0F2B2A
:1053800000DD80E0644B654A9A4693461B681268CC
:10539000EB18013200D138E1614A944663441B0B9B
:1053A0001B0300930099380000F0BCF9030081460C
:1053B000013300D1F6E04346E218824200D9EFE023
:1053C00051464968009B8C46514663444B6082427B
:1053D00000D14BE159460968013100D15DE14946F0
:1053E0008A1AD3185246536007234A461A4001923C
:1053F00000D120E108214B4689469B1A9944009927
:10540000484B49449B1A5B1A1B051B0D0091380041
:1054100019009B4600F086F9431C00D15AE153461F
:1054200052465B6849465B4453604A46B260801A04
:105430000122584410434860B44211D041460F291C
:1054400000D827E107200C3981436068024005201D
:105450000A4362606218506090600F2900D941E1F0
:105460005246D26A934201D95246D3620322B468AB
:10547000616891430A005146096B8B4200D895E060
:1054800051460B6392E00122290013431143651931
:1054900061603800B5606B6000F042F920000830B0
:1054A000B2E64046F0E6DC680230A34200D1EBE60B
:1054B00098E614286ED9542800D9A9E06E2398469E
:1054C000280B80446F30C100BFE6012360191D43E3
:1054D000656070613061C26082601A0053460A43A1
:1054E00042603800E15000F01BF9200008308BE6E4
:1054F0002B00E80808336DE608239B46073BDC4495
:105500009B46DA4443465246134200D0F5E667E034
:1055100068080020FF010000B40C00206008002093
:105520000F100000081000000122E318596838002D
:105530000A435A60E368A268D3609A6000F0F0F80A
:105540002000083060E65A0A042A3AD9142A00D901
:1055500083E05B23984690445C32D20008235B4290
:105560009C46B218944463469968032399468C4537
:1055700059D04B464A689A43524502D989688C45AE
:10558000F7D1CB6872689C466346A160E3609C607B
:10559000CC609EE65B23984680445C30C10054E6B4
:1055A000B4427ED00323B46862689A43531B954289
:1055B00002D80F2B00DD66E7380000F0B1F80020BC
:1055C00022E69A093823984690443932D200C5E73A
:1055D0004B461A68083B013891469A4200D098E041
:1055E00043460342F4D173688B4373604900994288
:1055F00000D9BCE6002904D1B9E60422944649004A
:10560000E2440B42F9D0504672E610330093C9E6EB
:10561000AA235B00984233D8DD3B9846E80B8044D0
:105620007830C10011E6434601229B109A4073680E
:105630001A437260A8E7009B38004B4400931B0597
:105640005B421B0D19009B4600F06CF8431C00D018
:10565000E5E6002300989B46E1E6542A29D81A0B78
:105660006E23984690446F32D20077E7110500D040
:10567000B0E60120009AB168424402434A60EFE676
:10568000254B984220D87C239846A80C80447D3036
:10569000C100DAE54B465A608EE75B464A461A601F
:1056A000A2E651464968009B8C46514663444B60D4
:1056B00090E6AA2149008A421CD8DA0B7723984643
:1056C00090447832D20049E7FE217E2389007F2072
:1056D0009846BAE5009B01989C4600230838604430
:1056E0009B469CE6210038000831FFF7D1FB53466A
:1056F0005B68B5E608498A4206D89A0C7C2398462E
:1057000090447D32D20029E7FE227E239200984603
:1057100024E773686AE7C046540500007047C04636
:105720007047C046002370B5064C05000800236092
:10573000FCF78AF8431C00D070BD2368002BFBD017
:105740002B60F9E74C1A002070B50C000E25495F5C
:1057500000F088FA002803DB236D1B18236570BD59
:10576000A389024A1340A381F9E7C046FFEFFFFF78
:1057700000207047F8B516001F000C228B5E0C004D
:1057800005000E22895EDA0507D50022022300F00B
:1057900055FA0C22A35E0E22A15E044A2800134093
:1057A000A38132003B0000F051F8F8BDFFEFFFFF8E
:1057B00070B50C000E25495F00F040FA431C06D07E
:1057C0008023A2895B011343A381206570BDA38957
:1057D000014A1340A381F9E7FFEFFFFF10B50E2345
:1057E000C95E00F047F810BD10B5040083070AD069
:1057F0000378002B23D0032202E00378002B1CD077
:1058000001301042F9D102680E4B0F49D31893436F
:105810000B420FD1043002680A4BD31893430B425A
:1058200008D104300268074BD31893430B42F1D0E0
:1058300000E001300378002BFBD1001B10BD0020DD
:10584000FCE7C046FFFEFEFE8080808070B505004C
:10585000080011000022064C22601A00FCF774FEBA
:10586000431C00D070BD2368002BFBD02B60F9E7F0
:105870004C1A0020002370B5064C05000800236078
:1058800000F0E4FC431C00D070BD2368002BFBD06B
:105890002B60F9E74C1A002070B505000C1E08D0EB
:1058A000002802D0836B002B31D00C22A35E002B8A
:1058B00002D10026300070BD21002800FFF7B4F8A7
:1058C000E36A0600002B04D0E1692800984700280D
:1058D00024DBA3891B0624D4216B002908D02300D4
:1058E0004033994202D02800FFF7D2FA0023236305
:1058F000616C002904D02800FFF7CAFA0023636412
:10590000FFF756FA0023A381FFF754FAD2E7FFF717
:1059100047FA0C22A35E002BCBD0CDE701267642BE
:10592000D7E721692800FFF7B3FAD5E710B5034B95
:1059300001001868FFF7B0FF10BDC046300400201A
:10594000F0B54546DE4657464E46E0B5936883B00F
:1059500000900D009046002B2DD08B891A0732D570
:105960000A69002A2FD0424616689A0737D56B6A13
:1059700000279A46AD4B00249946E969002C16D0C1
:1059800023004C4500D9A94B3A000098D047002885
:1059900000DC8FE043469B683F18241A181A4346E0
:1059A000986008D06B6AE9699A46002CE8D137689C
:1059B00074680836E2E7002003B03CBC9046994684
:1059C000A246AB46F0BD2900009800F037FB002846
:1059D00000D028E14246AB8916689A07C7D4DA0797
:1059E00070D4002291468022920000279346AC6832
:1059F0002868002F53D05A46134200D1A8E0A2468F
:105A0000BC4200D9D7E09022D20013422ED029699F
:105A1000441AA4466869019442001218D00F8218F3
:105A2000781C521060449246904201D9824602008E
:105A30005B0500D4D0E011000098FFF7B7FB041E0F
:105A400000D1EAE0019A2969FCF704FCAB89784AA5
:105A5000134080221343AB815246019B2C61E01816
:105A6000BA463C00D31A28606A61AB605246494688
:105A700000F03EFCAB681C1BAC603C0000272B68B0
:105A800053442B6043469B68A1441C1B43469C60C7
:105A900000D190E7AC682868AB89002FABD13268A1
:105AA000776891460836A4E729000098FFF764F864
:105AB00000282DD00C22AB5E402201201343AB8185
:105AC000404279E7002399469A46330000204E462B
:105AD0000027994625E000282FD0B346BE4200D9C2
